{
  "contractName": "RecyclingContract",
  "abi": [
    {
      "inputs": [],
      "stateMutability": "nonpayable",
      "type": "constructor"
    },
    {
      "anonymous": false,
      "inputs": [
        {
          "indexed": true,
          "internalType": "uint256",
          "name": "Id",
          "type": "uint256"
        },
        {
          "indexed": false,
          "internalType": "uint256",
          "name": "timestamp",
          "type": "uint256"
        }
      ],
      "name": "ItemSubmitted",
      "type": "event"
    },
    {
      "inputs": [],
      "name": "NEA",
      "outputs": [
        {
          "internalType": "address",
          "name": "",
          "type": "address"
        }
      ],
      "stateMutability": "view",
      "type": "function",
      "constant": true
    },
    {
      "inputs": [
        {
          "internalType": "uint256",
          "name": "",
          "type": "uint256"
        }
      ],
      "name": "binLocations",
      "outputs": [
        {
          "internalType": "string",
          "name": "",
          "type": "string"
        }
      ],
      "stateMutability": "view",
      "type": "function",
      "constant": true
    },
    {
      "inputs": [],
      "name": "itemCount",
      "outputs": [
        {
          "internalType": "uint256",
          "name": "",
          "type": "uint256"
        }
      ],
      "stateMutability": "view",
      "type": "function",
      "constant": true
    },
    {
      "inputs": [
        {
          "internalType": "uint256",
          "name": "",
          "type": "uint256"
        }
      ],
      "name": "items",
      "outputs": [
        {
          "internalType": "uint256",
          "name": "Id",
          "type": "uint256"
        },
        {
          "internalType": "string",
          "name": "itemId",
          "type": "string"
        },
        {
          "internalType": "string",
          "name": "recyclerName",
          "type": "string"
        },
        {
          "internalType": "string",
          "name": "materialType",
          "type": "string"
        },
        {
          "internalType": "uint256",
          "name": "weight",
          "type": "uint256"
        },
        {
          "internalType": "uint256",
          "name": "binNumber",
          "type": "uint256"
        },
        {
          "internalType": "string",
          "name": "location",
          "type": "string"
        },
        {
          "internalType": "enum RecyclingContract.RecyclingStatus",
          "name": "status",
          "type": "uint8"
        },
        {
          "internalType": "address",
          "name": "submittedBy",
          "type": "address"
        }
      ],
      "stateMutability": "view",
      "type": "function",
      "constant": true
    },
    {
      "inputs": [
        {
          "internalType": "uint256",
          "name": "",
          "type": "uint256"
        }
      ],
      "name": "recyclerList",
      "outputs": [
        {
          "internalType": "string",
          "name": "",
          "type": "string"
        }
      ],
      "stateMutability": "view",
      "type": "function",
      "constant": true
    },
    {
      "inputs": [
        {
          "internalType": "string",
          "name": "",
          "type": "string"
        }
      ],
      "name": "userTotalWeights",
      "outputs": [
        {
          "internalType": "uint256",
          "name": "",
          "type": "uint256"
        }
      ],
      "stateMutability": "view",
      "type": "function",
      "constant": true
    },
    {
      "inputs": [
        {
          "internalType": "string",
          "name": "_recyclerName",
          "type": "string"
        },
        {
          "internalType": "string",
          "name": "_materialType",
          "type": "string"
        },
        {
          "internalType": "uint256",
          "name": "_weight",
          "type": "uint256"
        },
        {
          "internalType": "uint256",
          "name": "_binNumber",
          "type": "uint256"
        }
      ],
      "name": "registerItem",
      "outputs": [],
      "stateMutability": "nonpayable",
      "type": "function"
    },
    {
      "inputs": [],
      "name": "getRecyclerListCount",
      "outputs": [
        {
          "internalType": "uint256",
          "name": "",
          "type": "uint256"
        }
      ],
      "stateMutability": "view",
      "type": "function",
      "constant": true
    },
    {
      "inputs": [
        {
          "internalType": "uint256",
          "name": "_id",
          "type": "uint256"
        }
      ],
      "name": "getItemSummary",
      "outputs": [
        {
          "internalType": "uint256",
          "name": "Id",
          "type": "uint256"
        },
        {
          "internalType": "string",
          "name": "itemId",
          "type": "string"
        },
        {
          "internalType": "string",
          "name": "recyclerName",
          "type": "string"
        },
        {
          "internalType": "string",
          "name": "materialType",
          "type": "string"
        },
        {
          "internalType": "uint256",
          "name": "weight",
          "type": "uint256"
        },
        {
          "internalType": "uint256",
          "name": "binNumber",
          "type": "uint256"
        },
        {
          "internalType": "string",
          "name": "location",
          "type": "string"
        },
        {
          "internalType": "enum RecyclingContract.RecyclingStatus",
          "name": "status",
          "type": "uint8"
        },
        {
          "internalType": "address",
          "name": "submittedBy",
          "type": "address"
        }
      ],
      "stateMutability": "view",
      "type": "function",
      "constant": true
    }
  ],
  "bytecode": "0x60806040523480156200001157600080fd5b50336000806101000a81548173ffffffffffffffffffffffffffffffffffffffff021916908373ffffffffffffffffffffffffffffffffffffffff1602179055506040518060400160405280600781526020017f4f7263686172640000000000000000000000000000000000000000000000000081525060036000600181526020019081526020016000209081620000aa919062000436565b506040518060400160405280600881526020017f54616d70696e65730000000000000000000000000000000000000000000000008152506003600060028152602001908152602001600020908162000103919062000436565b506040518060400160405280600681526020017f4a75726f6e670000000000000000000000000000000000000000000000000000815250600360006003815260200190815260200160002090816200015c919062000436565b506040518060400160405280600581526020017f4265646f6b00000000000000000000000000000000000000000000000000000081525060036000600481526020019081526020016000209081620001b5919062000436565b506200051d565b600081519050919050565b7f4e487b7100000000000000000000000000000000000000000000000000000000600052604160045260246000fd5b7f4e487b7100000000000000000000000000000000000000000000000000000000600052602260045260246000fd5b600060028204905060018216806200023e57607f821691505b602082108103620002545762000253620001f6565b5b50919050565b60008190508160005260206000209050919050565b60006020601f8301049050919050565b600082821b905092915050565b600060088302620002be7fffffffffffffffffffffffffffffffffffffffffffffffffffffffffffffffff826200027f565b620002ca86836200027f565b95508019841693508086168417925050509392505050565b6000819050919050565b6000819050919050565b600062000317620003116200030b84620002e2565b620002ec565b620002e2565b9050919050565b6000819050919050565b6200033383620002f6565b6200034b62000342826200031e565b8484546200028c565b825550505050565b600090565b6200036262000353565b6200036f81848462000328565b505050565b5b8181101562000397576200038b60008262000358565b60018101905062000375565b5050565b601f821115620003e657620003b0816200025a565b620003bb846200026f565b81016020851015620003cb578190505b620003e3620003da856200026f565b83018262000374565b50505b505050565b600082821c905092915050565b60006200040b60001984600802620003eb565b1980831691505092915050565b6000620004268383620003f8565b9150826002028217905092915050565b6200044182620001bc565b67ffffffffffffffff8111156200045d576200045c620001c7565b5b62000469825462000225565b620004768282856200039b565b600060209050601f831160018114620004ae576000841562000499578287015190505b620004a5858262000418565b86555062000515565b601f198416620004be866200025a565b60005b82811015620004e857848901518255600182019150602085019450602081019050620004c1565b8683101562000508578489015162000504601f891682620003f8565b8355505b6001600288020188555050505b505050505050565b611a0d806200052d6000396000f3fe608060405234801561001057600080fd5b50600436106100935760003560e01c8063bfb231d211610066578063bfb231d21461014e578063d3a53db114610186578063dac37b81146101b6578063e73f8afd146101d4578063edf9e6f4146101f057610093565b80630b8b2a69146100985780636722317c146100d05780636bfb0d0114610100578063b6fa6ec61461011e575b600080fd5b6100b260048036038101906100ad9190610e17565b61020e565b6040516100c799989796959493929190610f9b565b60405180910390f35b6100ea60048036038101906100e59190610e17565b6104da565b6040516100f79190611044565b60405180910390f35b610108610586565b6040516101159190611066565b60405180910390f35b61013860048036038101906101339190610e17565b61058c565b6040516101459190611044565b60405180910390f35b61016860048036038101906101639190610e17565b61062c565b60405161017d99989796959493929190610f9b565b60405180910390f35b6101a0600480360381019061019b91906111b6565b6108c7565b6040516101ad9190611066565b60405180910390f35b6101be6108f5565b6040516101cb9190611066565b60405180910390f35b6101ee60048036038101906101e991906111ff565b610902565b005b6101f8610c46565b604051610205919061129e565b60405180910390f35b6000606080606060008060606000806000600160008c81526020019081526020016000209050806000015481600101826002018360030184600401548560050154866006018760070160009054906101000a900460ff168860070160019054906101000a900473ffffffffffffffffffffffffffffffffffffffff16878054610296906112e8565b80601f01602080910402602001604051908101604052809291908181526020018280546102c2906112e8565b801561030f5780601f106102e45761010080835404028352916020019161030f565b820191906000526020600020905b8154815290600101906020018083116102f257829003601f168201915b50505050509750868054610322906112e8565b80601f016020809104026020016040519081016040528092919081815260200182805461034e906112e8565b801561039b5780601f106103705761010080835404028352916020019161039b565b820191906000526020600020905b81548152906001019060200180831161037e57829003601f168201915b505050505096508580546103ae906112e8565b80601f01602080910402602001604051908101604052809291908181526020018280546103da906112e8565b80156104275780601f106103fc57610100808354040283529160200191610427565b820191906000526020600020905b81548152906001019060200180831161040a57829003601f168201915b5050505050955082805461043a906112e8565b80601f0160208091040260200160405190810160405280929190818152602001828054610466906112e8565b80156104b35780601f10610488576101008083540402835291602001916104b3565b820191906000526020600020905b81548152906001019060200180831161049657829003601f168201915b50505050509250995099509950995099509950995099509950509193959799909294969850565b600581815481106104ea57600080fd5b906000526020600020016000915090508054610505906112e8565b80601f0160208091040260200160405190810160405280929190818152602001828054610531906112e8565b801561057e5780601f106105535761010080835404028352916020019161057e565b820191906000526020600020905b81548152906001019060200180831161056157829003601f168201915b505050505081565b60025481565b600360205280600052604060002060009150905080546105ab906112e8565b80601f01602080910402602001604051908101604052809291908181526020018280546105d7906112e8565b80156106245780601f106105f957610100808354040283529160200191610624565b820191906000526020600020905b81548152906001019060200180831161060757829003601f168201915b505050505081565b6001602052806000526040600020600091509050806000015490806001018054610655906112e8565b80601f0160208091040260200160405190810160405280929190818152602001828054610681906112e8565b80156106ce5780601f106106a3576101008083540402835291602001916106ce565b820191906000526020600020905b8154815290600101906020018083116106b157829003601f168201915b5050505050908060020180546106e3906112e8565b80601f016020809104026020016040519081016040528092919081815260200182805461070f906112e8565b801561075c5780601f106107315761010080835404028352916020019161075c565b820191906000526020600020905b81548152906001019060200180831161073f57829003601f168201915b505050505090806003018054610771906112e8565b80601f016020809104026020016040519081016040528092919081815260200182805461079d906112e8565b80156107ea5780601f106107bf576101008083540402835291602001916107ea565b820191906000526020600020905b8154815290600101906020018083116107cd57829003601f168201915b50505050509080600401549080600501549080600601805461080b906112e8565b80601f0160208091040260200160405190810160405280929190818152602001828054610837906112e8565b80156108845780601f1061085957610100808354040283529160200191610884565b820191906000526020600020905b81548152906001019060200180831161086757829003601f168201915b5050505050908060070160009054906101000a900460ff16908060070160019054906101000a900473ffffffffffffffffffffffffffffffffffffffff16905089565b6004818051602081018201805184825260208301602085012081835280955050505050506000915090505481565b6000600580549050905090565b60008054906101000a900473ffffffffffffffffffffffffffffffffffffffff1673ffffffffffffffffffffffffffffffffffffffff163373ffffffffffffffffffffffffffffffffffffffff1614610990576040517f08c379a000000000000000000000000000000000000000000000000000000000815260040161098790611365565b60405180910390fd5b60006003600083815260200190815260200160002080546109b0906112e8565b9050036109f2576040517f08c379a00000000000000000000000000000000000000000000000000000000081526004016109e9906113d1565b60405180910390fd5b60026000815480929190610a0590611420565b9190505550600060016000600254815260200190815260200160002090506002548160000181905550610a39600254610c6a565b604051602001610a4991906114f0565b604051602081830303815290604052816001019081610a6891906116be565b5084816002019081610a7a91906116be565b5083816003019081610a8c91906116be565b5082816004018190555081816005018190555060036000838152602001908152602001600020816006019081610ac291906117bb565b5060028160070160006101000a81548160ff02191690836002811115610aeb57610aea610ee3565b5b0217905550338160070160016101000a81548173ffffffffffffffffffffffffffffffffffffffff021916908373ffffffffffffffffffffffffffffffffffffffff16021790555082600486604051610b4491906118a3565b90815260200160405180910390206000828254610b6191906118ba565b92505081905550600685604051610b7891906118a3565b908152602001604051809103902060009054906101000a900460ff16610c0557600585908060018154018082558091505060019003906000526020600020016000909190919091509081610bcc91906116be565b506001600686604051610bdf91906118a3565b908152602001604051809103902060006101000a81548160ff0219169083151502179055505b6002547fbd0b00f5e4f27287b58436d1af148b73261fe9820b2f36107c6bf63d16d73d3542604051610c379190611066565b60405180910390a25050505050565b60008054906101000a900473ffffffffffffffffffffffffffffffffffffffff1681565b606060008203610cb1576040518060400160405280600181526020017f30000000000000000000000000000000000000000000000000000000000000008152509050610dc8565b600082905060005b60008214610ce3578080610ccc90611420565b915050600a82610cdc919061191d565b9150610cb9565b60008167ffffffffffffffff811115610cff57610cfe61108b565b5b6040519080825280601f01601f191660200182016040528015610d315781602001600182028036833780820191505090505b50905060008290505b60008614610dc057600a86610d4f919061194e565b6030610d5b91906118ba565b60f81b8282610d699061197f565b92508281518110610d7d57610d7c6119a8565b5b60200101907effffffffffffffffffffffffffffffffffffffffffffffffffffffffffffff1916908160001a905350600a86610db9919061191d565b9550610d3a565b819450505050505b919050565b6000604051905090565b600080fd5b600080fd5b6000819050919050565b610df481610de1565b8114610dff57600080fd5b50565b600081359050610e1181610deb565b92915050565b600060208284031215610e2d57610e2c610dd7565b5b6000610e3b84828501610e02565b91505092915050565b610e4d81610de1565b82525050565b600081519050919050565b600082825260208201905092915050565b60005b83811015610e8d578082015181840152602081019050610e72565b60008484015250505050565b6000601f19601f8301169050919050565b6000610eb582610e53565b610ebf8185610e5e565b9350610ecf818560208601610e6f565b610ed881610e99565b840191505092915050565b7f4e487b7100000000000000000000000000000000000000000000000000000000600052602160045260246000fd5b60038110610f2357610f22610ee3565b5b50565b6000819050610f3482610f12565b919050565b6000610f4482610f26565b9050919050565b610f5481610f39565b82525050565b600073ffffffffffffffffffffffffffffffffffffffff82169050919050565b6000610f8582610f5a565b9050919050565b610f9581610f7a565b82525050565b600061012082019050610fb1600083018c610e44565b8181036020830152610fc3818b610eaa565b90508181036040830152610fd7818a610eaa565b90508181036060830152610feb8189610eaa565b9050610ffa6080830188610e44565b61100760a0830187610e44565b81810360c08301526110198186610eaa565b905061102860e0830185610f4b565b611036610100830184610f8c565b9a9950505050505050505050565b6000602082019050818103600083015261105e8184610eaa565b905092915050565b600060208201905061107b6000830184610e44565b92915050565b600080fd5b600080fd5b7f4e487b7100000000000000000000000000000000000000000000000000000000600052604160045260246000fd5b6110c382610e99565b810181811067ffffffffffffffff821117156110e2576110e161108b565b5b80604052505050565b60006110f5610dcd565b905061110182826110ba565b919050565b600067ffffffffffffffff8211156111215761112061108b565b5b61112a82610e99565b9050602081019050919050565b82818337600083830152505050565b600061115961115484611106565b6110eb565b90508281526020810184848401111561117557611174611086565b5b611180848285611137565b509392505050565b600082601f83011261119d5761119c611081565b5b81356111ad848260208601611146565b91505092915050565b6000602082840312156111cc576111cb610dd7565b5b600082013567ffffffffffffffff8111156111ea576111e9610ddc565b5b6111f684828501611188565b91505092915050565b6000806000806080858703121561121957611218610dd7565b5b600085013567ffffffffffffffff81111561123757611236610ddc565b5b61124387828801611188565b945050602085013567ffffffffffffffff81111561126457611263610ddc565b5b61127087828801611188565b935050604061128187828801610e02565b925050606061129287828801610e02565b91505092959194509250565b60006020820190506112b36000830184610f8c565b92915050565b7f4e487b7100000000000000000000000000000000000000000000000000000000600052602260045260246000fd5b6000600282049050600182168061130057607f821691505b602082108103611313576113126112b9565b5b50919050565b7f4f6e6c79204e45412063616e20706572666f726d207468697320616374696f6e600082015250565b600061134f602083610e5e565b915061135a82611319565b602082019050919050565b6000602082019050818103600083015261137e81611342565b9050919050565b7f42696e206c6f636174696f6e206e6f7420736574000000000000000000000000600082015250565b60006113bb601483610e5e565b91506113c682611385565b602082019050919050565b600060208201905081810360008301526113ea816113ae565b9050919050565b7f4e487b7100000000000000000000000000000000000000000000000000000000600052601160045260246000fd5b600061142b82610de1565b91507fffffffffffffffffffffffffffffffffffffffffffffffffffffffffffffffff820361145d5761145c6113f1565b5b600182019050919050565b600081905092915050565b7f3030300000000000000000000000000000000000000000000000000000000000600082015250565b60006114a9600383611468565b91506114b482611473565b600382019050919050565b60006114ca82610e53565b6114d48185611468565b93506114e4818560208601610e6f565b80840191505092915050565b60006114fb8261149c565b915061150782846114bf565b915081905092915050565b60008190508160005260206000209050919050565b60006020601f8301049050919050565b600082821b905092915050565b6000600883026115747fffffffffffffffffffffffffffffffffffffffffffffffffffffffffffffffff82611537565b61157e8683611537565b95508019841693508086168417925050509392505050565b6000819050919050565b60006115bb6115b66115b184610de1565b611596565b610de1565b9050919050565b6000819050919050565b6115d5836115a0565b6115e96115e1826115c2565b848454611544565b825550505050565b600090565b6115fe6115f1565b6116098184846115cc565b505050565b5b8181101561162d576116226000826115f6565b60018101905061160f565b5050565b601f8211156116725761164381611512565b61164c84611527565b8101602085101561165b578190505b61166f61166785611527565b83018261160e565b50505b505050565b600082821c905092915050565b600061169560001984600802611677565b1980831691505092915050565b60006116ae8383611684565b9150826002028217905092915050565b6116c782610e53565b67ffffffffffffffff8111156116e0576116df61108b565b5b6116ea82546112e8565b6116f5828285611631565b600060209050601f8311600181146117285760008415611716578287015190505b61172085826116a2565b865550611788565b601f19841661173686611512565b60005b8281101561175e57848901518255600182019150602085019450602081019050611739565b8683101561177b5784890151611777601f891682611684565b8355505b6001600288020188555050505b505050505050565b60008154905061179f816112e8565b9050919050565b60008190508160005260206000209050919050565b8181036117c95750506118a1565b6117d282611790565b67ffffffffffffffff8111156117eb576117ea61108b565b5b6117f582546112e8565b611800828285611631565b6000601f83116001811461182f576000841561181d578287015490505b61182785826116a2565b86555061189a565b601f19841661183d876117a6565b965061184886611512565b60005b828110156118705784890154825560018201915060018501945060208101905061184b565b8683101561188d5784890154611889601f891682611684565b8355505b6001600288020188555050505b5050505050505b565b60006118af82846114bf565b915081905092915050565b60006118c582610de1565b91506118d083610de1565b92508282019050808211156118e8576118e76113f1565b5b92915050565b7f4e487b7100000000000000000000000000000000000000000000000000000000600052601260045260246000fd5b600061192882610de1565b915061193383610de1565b925082611943576119426118ee565b5b828204905092915050565b600061195982610de1565b915061196483610de1565b925082611974576119736118ee565b5b828206905092915050565b600061198a82610de1565b91506000820361199d5761199c6113f1565b5b600182039050919050565b7f4e487b7100000000000000000000000000000000000000000000000000000000600052603260045260246000fdfea2646970667358221220e96af38e4ae5f9df443e1923ebcfd4549ee6d64f2dc11e898f3ea27d3a5ae1c364736f6c63430008130033",
  "immutableReferences": {},
  "source": "// SPDX-License-Identifier: MIT\r\npragma solidity ^0.8.19;\r\n\r\ncontract RecyclingContract {\r\n    address public NEA;\r\n\r\n    enum RecyclingStatus {Rejected, Recheck, Approved}\r\n\r\n    struct RecyclingItem {\r\n        uint256 Id;                 \r\n        string itemId;              \r\n        string recyclerName;    \r\n        string materialType;\r\n        uint256 weight;\r\n        uint256 binNumber;\r\n        string location;           \r\n        RecyclingStatus status;\r\n        address submittedBy;\r\n    }\r\n\r\n    mapping(uint256 => RecyclingItem) public items; \r\n    uint256 public itemCount;\r\n\r\n    mapping(uint256 => string) public binLocations;\r\n\r\n    // Leaderboard Data\r\n    mapping(string => uint256) public userTotalWeights;\r\n    string[] public recyclerList;\r\n    mapping(string => bool) private hasRecycled;\r\n\r\n    // Event to record submission timestamp\r\n    event ItemSubmitted(uint256 indexed Id, uint256 timestamp);\r\n\r\n    modifier onlyNEA() {\r\n        require(msg.sender == NEA, \"Only NEA can perform this action\");\r\n        _;\r\n    }\r\n\r\n    constructor() {\r\n        NEA = msg.sender;\r\n        binLocations[1] = \"Orchard\";\r\n        binLocations[2] = \"Tampines\";\r\n        binLocations[3] = \"Jurong\";\r\n        binLocations[4] = \"Bedok\";\r\n    }\r\n\r\n    function registerItem(\r\n        string memory _recyclerName,\r\n        string memory _materialType,\r\n        uint256 _weight,\r\n        uint256 _binNumber\r\n    ) public onlyNEA {\r\n        require(bytes(binLocations[_binNumber]).length != 0, \"Bin location not set\");\r\n\r\n        itemCount++;\r\n        RecyclingItem storage r = items[itemCount];\r\n        r.Id = itemCount;\r\n        r.itemId = string(abi.encodePacked(\"000\", uint2str(itemCount)));\r\n        r.recyclerName = _recyclerName;\r\n        r.materialType = _materialType;\r\n        r.weight = _weight;\r\n        r.binNumber = _binNumber;\r\n        r.location = binLocations[_binNumber];\r\n        r.status = RecyclingStatus.Approved;  // always approved\r\n        r.submittedBy = msg.sender;\r\n\r\n        // Update Total Weight for Leaderboard\r\n        userTotalWeights[_recyclerName] += _weight;\r\n        if (!hasRecycled[_recyclerName]) {\r\n            recyclerList.push(_recyclerName);\r\n            hasRecycled[_recyclerName] = true;\r\n        }\r\n\r\n        emit ItemSubmitted(itemCount, block.timestamp); // emit timestamp\r\n    }\r\n\r\n    function getRecyclerListCount() public view returns(uint256) {\r\n        return recyclerList.length;\r\n    }\r\n\r\n    // Helper: convert uint to string\r\n    function uint2str(uint256 _i) internal pure returns (string memory str) {\r\n        if (_i == 0) return \"0\";\r\n        uint256 j = _i;\r\n        uint256 length;\r\n        while (j != 0) { length++; j /= 10; }\r\n        bytes memory bstr = new bytes(length);\r\n        uint256 k = length;\r\n        while (_i != 0) {\r\n            bstr[--k] = bytes1(uint8(48 + _i % 10));\r\n            _i /= 10;\r\n        }\r\n        str = string(bstr);\r\n    }\r\n\r\n    function getItemSummary(uint256 _id) public view returns (\r\n        uint256 Id,\r\n        string memory itemId,\r\n        string memory recyclerName,\r\n        string memory materialType,\r\n        uint256 weight,\r\n        uint256 binNumber,\r\n        string memory location,\r\n        RecyclingStatus status,\r\n        address submittedBy\r\n    ) {\r\n        RecyclingItem storage item = items[_id];\r\n        return (\r\n            item.Id,\r\n            item.itemId,\r\n            item.recyclerName,\r\n            item.materialType,\r\n            item.weight,\r\n            item.binNumber,\r\n            item.location,\r\n            item.status,\r\n            item.submittedBy\r\n        );\r\n    }\r\n}\r\n",
  "sourcePath": "C:\\Users\\zhien\\OneDrive\\Desktop\\A002\\FA\\contracts\\RecyclingContract.sol",
  "compiler": {
    "name": "solc",
    "version": "0.8.19+commit.7dd6d404.Emscripten.clang"
  },
  "schemaVersion": "3.4.16",
  "updatedAt": "2026-01-26T16:28:11.439Z",
  "networkType": "ethereum",
  "devdoc": {
    "kind": "dev",
    "methods": {},
    "version": 1
  },
  "userdoc": {
    "kind": "user",
    "methods": {},
    "version": 1
  }
}